{
  "_format": "hh-sol-artifact-1",
  "contractName": "LacunaStrategies",
  "sourceName": "contracts/LacunaStrategies.sol",
  "abi": [
    {
      "inputs": [
        {
          "internalType": "address",
          "name": "couponSigner_",
          "type": "address"
        },
        {
          "internalType": "address[]",
          "name": "payees",
          "type": "address[]"
        },
        {
          "internalType": "uint256[]",
          "name": "shares",
          "type": "uint256[]"
        }
      ],
      "stateMutability": "nonpayable",
      "type": "constructor"
    },
    {
      "inputs": [],
      "name": "ApprovalCallerNotOwnerNorApproved",
      "type": "error"
    },
    {
      "inputs": [],
      "name": "ApprovalQueryForNonexistentToken",
      "type": "error"
    },
    {
      "inputs": [],
      "name": "ApprovalToCurrentOwner",
      "type": "error"
    },
    {
      "inputs": [],
      "name": "ApproveToCaller",
      "type": "error"
    },
    {
      "inputs": [],
      "name": "BalanceQueryForZeroAddress",
      "type": "error"
    },
    {
      "inputs": [],
      "name": "MintToZeroAddress",
      "type": "error"
    },
    {
      "inputs": [],
      "name": "MintZeroQuantity",
      "type": "error"
    },
    {
      "inputs": [],
      "name": "OwnerQueryForNonexistentToken",
      "type": "error"
    },
    {
      "inputs": [],
      "name": "TransferCallerNotOwnerNorApproved",
      "type": "error"
    },
    {
      "inputs": [],
      "name": "TransferFromIncorrectOwner",
      "type": "error"
    },
    {
      "inputs": [],
      "name": "TransferToNonERC721ReceiverImplementer",
      "type": "error"
    },
    {
      "inputs": [],
      "name": "TransferToZeroAddress",
      "type": "error"
    },
    {
      "inputs": [],
      "name": "URIQueryForNonexistentToken",
      "type": "error"
    },
    {
      "anonymous": false,
      "inputs": [
        {
          "indexed": true,
          "internalType": "address",
          "name": "owner",
          "type": "address"
        },
        {
          "indexed": true,
          "internalType": "address",
          "name": "approved",
          "type": "address"
        },
        {
          "indexed": true,
          "internalType": "uint256",
          "name": "tokenId",
          "type": "uint256"
        }
      ],
      "name": "Approval",
      "type": "event"
    },
    {
      "anonymous": false,
      "inputs": [
        {
          "indexed": true,
          "internalType": "address",
          "name": "owner",
          "type": "address"
        },
        {
          "indexed": true,
          "internalType": "address",
          "name": "operator",
          "type": "address"
        },
        {
          "indexed": false,
          "internalType": "bool",
          "name": "approved",
          "type": "bool"
        }
      ],
      "name": "ApprovalForAll",
      "type": "event"
    },
    {
      "anonymous": false,
      "inputs": [
        {
          "indexed": true,
          "internalType": "address",
          "name": "previousOwner",
          "type": "address"
        },
        {
          "indexed": true,
          "internalType": "address",
          "name": "newOwner",
          "type": "address"
        }
      ],
      "name": "OwnershipTransferred",
      "type": "event"
    },
    {
      "anonymous": false,
      "inputs": [
        {
          "indexed": true,
          "internalType": "address",
          "name": "from",
          "type": "address"
        },
        {
          "indexed": true,
          "internalType": "address",
          "name": "to",
          "type": "address"
        },
        {
          "indexed": true,
          "internalType": "uint256",
          "name": "tokenId",
          "type": "uint256"
        }
      ],
      "name": "Transfer",
      "type": "event"
    },
    {
      "inputs": [],
      "name": "MINT_PRICE",
      "outputs": [
        {
          "internalType": "uint256",
          "name": "",
          "type": "uint256"
        }
      ],
      "stateMutability": "view",
      "type": "function"
    },
    {
      "inputs": [],
      "name": "PRESALE_MINT_PRICE",
      "outputs": [
        {
          "internalType": "uint256",
          "name": "",
          "type": "uint256"
        }
      ],
      "stateMutability": "view",
      "type": "function"
    },
    {
      "inputs": [
        {
          "internalType": "address",
          "name": "",
          "type": "address"
        }
      ],
      "name": "addressToMinted",
      "outputs": [
        {
          "internalType": "uint256",
          "name": "_presaleMintsByAddress",
          "type": "uint256"
        },
        {
          "internalType": "uint256",
          "name": "_teamMintsByAddress",
          "type": "uint256"
        }
      ],
      "stateMutability": "view",
      "type": "function"
    },
    {
      "inputs": [
        {
          "internalType": "address",
          "name": "to",
          "type": "address"
        },
        {
          "internalType": "uint256",
          "name": "tokenId",
          "type": "uint256"
        }
      ],
      "name": "approve",
      "outputs": [],
      "stateMutability": "nonpayable",
      "type": "function"
    },
    {
      "inputs": [
        {
          "internalType": "address",
          "name": "owner",
          "type": "address"
        }
      ],
      "name": "balanceOf",
      "outputs": [
        {
          "internalType": "uint256",
          "name": "",
          "type": "uint256"
        }
      ],
      "stateMutability": "view",
      "type": "function"
    },
    {
      "inputs": [],
      "name": "couponSigner",
      "outputs": [
        {
          "internalType": "address",
          "name": "",
          "type": "address"
        }
      ],
      "stateMutability": "view",
      "type": "function"
    },
    {
      "inputs": [
        {
          "internalType": "uint256",
          "name": "tokenId",
          "type": "uint256"
        }
      ],
      "name": "getApproved",
      "outputs": [
        {
          "internalType": "address",
          "name": "",
          "type": "address"
        }
      ],
      "stateMutability": "view",
      "type": "function"
    },
    {
      "inputs": [
        {
          "internalType": "address",
          "name": "owner",
          "type": "address"
        },
        {
          "internalType": "address",
          "name": "operator",
          "type": "address"
        }
      ],
      "name": "isApprovedForAll",
      "outputs": [
        {
          "internalType": "bool",
          "name": "",
          "type": "bool"
        }
      ],
      "stateMutability": "view",
      "type": "function"
    },
    {
      "inputs": [
        {
          "internalType": "uint256",
          "name": "qty",
          "type": "uint256"
        }
      ],
      "name": "mint",
      "outputs": [],
      "stateMutability": "payable",
      "type": "function"
    },
    {
      "inputs": [
        {
          "internalType": "uint256",
          "name": "qty",
          "type": "uint256"
        },
        {
          "internalType": "uint256",
          "name": "allotted",
          "type": "uint256"
        },
        {
          "components": [
            {
              "internalType": "bytes32",
              "name": "r",
              "type": "bytes32"
            },
            {
              "internalType": "bytes32",
              "name": "s",
              "type": "bytes32"
            },
            {
              "internalType": "uint8",
              "name": "v",
              "type": "uint8"
            }
          ],
          "internalType": "struct LacunaStrategies.Coupon",
          "name": "coupon",
          "type": "tuple"
        }
      ],
      "name": "mintPresale",
      "outputs": [],
      "stateMutability": "payable",
      "type": "function"
    },
    {
      "inputs": [
        {
          "internalType": "uint256",
          "name": "qty",
          "type": "uint256"
        },
        {
          "internalType": "uint256",
          "name": "allotted",
          "type": "uint256"
        },
        {
          "components": [
            {
              "internalType": "bytes32",
              "name": "r",
              "type": "bytes32"
            },
            {
              "internalType": "bytes32",
              "name": "s",
              "type": "bytes32"
            },
            {
              "internalType": "uint8",
              "name": "v",
              "type": "uint8"
            }
          ],
          "internalType": "struct LacunaStrategies.Coupon",
          "name": "coupon",
          "type": "tuple"
        }
      ],
      "name": "mintTeam",
      "outputs": [],
      "stateMutability": "nonpayable",
      "type": "function"
    },
    {
      "inputs": [],
      "name": "name",
      "outputs": [
        {
          "internalType": "string",
          "name": "",
          "type": "string"
        }
      ],
      "stateMutability": "view",
      "type": "function"
    },
    {
      "inputs": [],
      "name": "owner",
      "outputs": [
        {
          "internalType": "address",
          "name": "",
          "type": "address"
        }
      ],
      "stateMutability": "view",
      "type": "function"
    },
    {
      "inputs": [
        {
          "internalType": "uint256",
          "name": "tokenId",
          "type": "uint256"
        }
      ],
      "name": "ownerOf",
      "outputs": [
        {
          "internalType": "address",
          "name": "",
          "type": "address"
        }
      ],
      "stateMutability": "view",
      "type": "function"
    },
    {
      "inputs": [
        {
          "internalType": "address payable",
          "name": "account",
          "type": "address"
        }
      ],
      "name": "release",
      "outputs": [],
      "stateMutability": "nonpayable",
      "type": "function"
    },
    {
      "inputs": [],
      "name": "renounceOwnership",
      "outputs": [],
      "stateMutability": "nonpayable",
      "type": "function"
    },
    {
      "inputs": [
        {
          "internalType": "address",
          "name": "from",
          "type": "address"
        },
        {
          "internalType": "address",
          "name": "to",
          "type": "address"
        },
        {
          "internalType": "uint256",
          "name": "tokenId",
          "type": "uint256"
        }
      ],
      "name": "safeTransferFrom",
      "outputs": [],
      "stateMutability": "nonpayable",
      "type": "function"
    },
    {
      "inputs": [
        {
          "internalType": "address",
          "name": "from",
          "type": "address"
        },
        {
          "internalType": "address",
          "name": "to",
          "type": "address"
        },
        {
          "internalType": "uint256",
          "name": "tokenId",
          "type": "uint256"
        },
        {
          "internalType": "bytes",
          "name": "_data",
          "type": "bytes"
        }
      ],
      "name": "safeTransferFrom",
      "outputs": [],
      "stateMutability": "nonpayable",
      "type": "function"
    },
    {
      "inputs": [
        {
          "internalType": "address",
          "name": "operator",
          "type": "address"
        },
        {
          "internalType": "bool",
          "name": "approved",
          "type": "bool"
        }
      ],
      "name": "setApprovalForAll",
      "outputs": [],
      "stateMutability": "nonpayable",
      "type": "function"
    },
    {
      "inputs": [
        {
          "internalType": "address",
          "name": "couponSigner_",
          "type": "address"
        }
      ],
      "name": "setCouponSigner",
      "outputs": [],
      "stateMutability": "nonpayable",
      "type": "function"
    },
    {
      "inputs": [
        {
          "internalType": "bytes4",
          "name": "interfaceId",
          "type": "bytes4"
        }
      ],
      "name": "supportsInterface",
      "outputs": [
        {
          "internalType": "bool",
          "name": "",
          "type": "bool"
        }
      ],
      "stateMutability": "view",
      "type": "function"
    },
    {
      "inputs": [],
      "name": "symbol",
      "outputs": [
        {
          "internalType": "string",
          "name": "",
          "type": "string"
        }
      ],
      "stateMutability": "view",
      "type": "function"
    },
    {
      "inputs": [
        {
          "internalType": "uint256",
          "name": "tokenId",
          "type": "uint256"
        }
      ],
      "name": "tokenURI",
      "outputs": [
        {
          "internalType": "string",
          "name": "",
          "type": "string"
        }
      ],
      "stateMutability": "view",
      "type": "function"
    },
    {
      "inputs": [],
      "name": "totalSupply",
      "outputs": [
        {
          "internalType": "uint256",
          "name": "",
          "type": "uint256"
        }
      ],
      "stateMutability": "view",
      "type": "function"
    },
    {
      "inputs": [
        {
          "internalType": "address",
          "name": "from",
          "type": "address"
        },
        {
          "internalType": "address",
          "name": "to",
          "type": "address"
        },
        {
          "internalType": "uint256",
          "name": "tokenId",
          "type": "uint256"
        }
      ],
      "name": "transferFrom",
      "outputs": [],
      "stateMutability": "nonpayable",
      "type": "function"
    },
    {
      "inputs": [
        {
          "internalType": "address",
          "name": "newOwner",
          "type": "address"
        }
      ],
      "name": "transferOwnership",
      "outputs": [],
      "stateMutability": "nonpayable",
      "type": "function"
    }
  ],
  "bytecode": "0x60806040523480156200001157600080fd5b5060405162003eed38038062003eed833981016040819052620000349162000337565b604080518082018252601081526f4c6163756e615374726174656769657360801b602080830191825283518085019094526004845263131054d560e21b908401528151919291620000889160029162000184565b5080516200009e90600390602084019062000184565b50506000805550620000b03362000132565b600980546001600160a01b0319166001600160a01b03851617905560405182908290620000dd9062000213565b620000ea9291906200041b565b604051809103906000f08015801562000107573d6000803e3d6000fd5b50600b80546001600160a01b0319166001600160a01b039290921691909117905550620004e0915050565b600880546001600160a01b038381166001600160a01b0319831681179093556040519116919082907f8be0079c531659141344cd1fd0a4f28419497f9722a3daafe3b4186f6b6457e090600090a35050565b8280546200019290620004a3565b90600052602060002090601f016020900481019282620001b6576000855562000201565b82601f10620001d157805160ff191683800117855562000201565b8280016001018555821562000201579182015b8281111562000201578251825591602001919060010190620001e4565b506200020f92915062000221565b5090565b61154180620029ac83390190565b5b808211156200020f576000815560010162000222565b80516001600160a01b03811681146200025057600080fd5b919050565b634e487b7160e01b600052604160045260246000fd5b604051601f8201601f191681016001600160401b038111828210171562000296576200029662000255565b604052919050565b60006001600160401b03821115620002ba57620002ba62000255565b5060051b60200190565b600082601f830112620002d657600080fd5b81516020620002ef620002e9836200029e565b6200026b565b82815260059290921b840181019181810190868411156200030f57600080fd5b8286015b848110156200032c578051835291830191830162000313565b509695505050505050565b6000806000606084860312156200034d57600080fd5b620003588462000238565b602085810151919450906001600160401b03808211156200037857600080fd5b818701915087601f8301126200038d57600080fd5b81516200039e620002e9826200029e565b81815260059190911b8301840190848101908a831115620003be57600080fd5b938501935b82851015620003e757620003d78562000238565b82529385019390850190620003c3565b60408a015190975094505050808311156200040157600080fd5b50506200041186828701620002c4565b9150509250925092565b604080825283519082018190526000906020906060840190828701845b828110156200045f5781516001600160a01b03168452928401929084019060010162000438565b5050508381038285015284518082528583019183019060005b81811015620004965783518352928401929184019160010162000478565b5090979650505050505050565b600181811c90821680620004b857607f821691505b60208210811415620004da57634e487b7160e01b600052602260045260246000fd5b50919050565b6124bc80620004f06000396000f3fe6080604052600436106101a15760003560e01c80638a34752f116100e1578063a22cb4651161008a578063c87b56dd11610064578063c87b56dd14610493578063e06af7bf146104b3578063e985e9c5146104c6578063f2fde38b1461050f57600080fd5b8063a22cb46514610438578063b88d4fde14610458578063c002d23d1461047857600080fd5b80639b1a5173116100bb5780639b1a5173146103bc5780639ec00c95146103dc578063a0712d681461042557600080fd5b80638a34752f146103695780638da5cb5b1461038957806395d89b41146103a757600080fd5b80631ea111791161014e57806342842e0e1161012857806342842e0e146102f45780636352211e1461031457806370a0823114610334578063715018a61461035457600080fd5b80631ea111791461029a57806323b872dd146102ba5780632a234e57146102da57600080fd5b8063095ea7b31161017f578063095ea7b31461023557806318160ddd14610257578063191655871461027a57600080fd5b806301ffc9a7146101a657806306fdde03146101db578063081812fc146101fd575b600080fd5b3480156101b257600080fd5b506101c66101c1366004611e20565b61052f565b60405190151581526020015b60405180910390f35b3480156101e757600080fd5b506101f0610614565b6040516101d29190611eb3565b34801561020957600080fd5b5061021d610218366004611ec6565b6106a6565b6040516001600160a01b0390911681526020016101d2565b34801561024157600080fd5b50610255610250366004611ef4565b610703565b005b34801561026357600080fd5b50600154600054035b6040519081526020016101d2565b34801561028657600080fd5b50610255610295366004611f20565b6107bc565b3480156102a657600080fd5b5060095461021d906001600160a01b031681565b3480156102c657600080fd5b506102556102d5366004611f3d565b610896565b3480156102e657600080fd5b5061026c65b5e620f4800081565b34801561030057600080fd5b5061025561030f366004611f3d565b6108a1565b34801561032057600080fd5b5061021d61032f366004611ec6565b6108bc565b34801561034057600080fd5b5061026c61034f366004611f20565b6108ce565b34801561036057600080fd5b50610255610936565b34801561037557600080fd5b50610255610384366004611ffc565b61099c565b34801561039557600080fd5b506008546001600160a01b031661021d565b3480156103b357600080fd5b506101f0610ad0565b3480156103c857600080fd5b506102556103d7366004611f20565b610adf565b3480156103e857600080fd5b506104106103f7366004611f20565b600a602052600090815260409020805460019091015482565b604080519283526020830191909152016101d2565b610255610433366004611ec6565b610b73565b34801561044457600080fd5b506102556104533660046120aa565b610c19565b34801561046457600080fd5b506102556104733660046120e8565b610ce6565b34801561048457600080fd5b5061026c66027ca57357c00081565b34801561049f57600080fd5b506101f06104ae366004611ec6565b610d43565b6102556104c1366004611ffc565b610dee565b3480156104d257600080fd5b506101c66104e13660046121ca565b6001600160a01b03918216600090815260076020908152604080832093909416825291909152205460ff1690565b34801561051b57600080fd5b5061025561052a366004611f20565b610faa565b60007fffffffff0000000000000000000000000000000000000000000000000000000082167f80ac58cd0000000000000000000000000000000000000000000000000000000014806105c257507fffffffff0000000000000000000000000000000000000000000000000000000082167f5b5e139f00000000000000000000000000000000000000000000000000000000145b8061060e57507f01ffc9a7000000000000000000000000000000000000000000000000000000007fffffffff000000000000000000000000000000000000000000000000000000008316145b92915050565b606060028054610623906121f8565b80601f016020809104026020016040519081016040528092919081815260200182805461064f906121f8565b801561069c5780601f106106715761010080835404028352916020019161069c565b820191906000526020600020905b81548152906001019060200180831161067f57829003601f168201915b5050505050905090565b60006106b18261108c565b6106e7576040517fcf4700e400000000000000000000000000000000000000000000000000000000815260040160405180910390fd5b506000908152600660205260409020546001600160a01b031690565b600061070e826108bc565b9050806001600160a01b0316836001600160a01b0316141561075c576040517f943f7b8c00000000000000000000000000000000000000000000000000000000815260040160405180910390fd5b336001600160a01b038216146107ac5761077681336104e1565b6107ac576040517fcfb3b94200000000000000000000000000000000000000000000000000000000815260040160405180910390fd5b6107b78383836110d0565b505050565b6008546001600160a01b0316331461081b5760405162461bcd60e51b815260206004820181905260248201527f4f776e61626c653a2063616c6c6572206973206e6f7420746865206f776e657260448201526064015b60405180910390fd5b600b546040517f191655870000000000000000000000000000000000000000000000000000000081526001600160a01b03838116600483015290911690631916558790602401600060405180830381600087803b15801561087b57600080fd5b505af115801561088f573d6000803e3d6000fd5b5050505050565b6107b7838383611144565b6107b783838360405180602001604052806000815250610ce6565b60006108c782611404565b5192915050565b60006001600160a01b038216610910576040517f8f4eb60400000000000000000000000000000000000000000000000000000000815260040160405180910390fd5b506001600160a01b031660009081526005602052604090205467ffffffffffffffff1690565b6008546001600160a01b031633146109905760405162461bcd60e51b815260206004820181905260248201527f4f776e61626c653a2063616c6c6572206973206e6f7420746865206f776e65726044820152606401610812565b61099a60006115ab565b565b6000600183336040516020016109b49392919061224c565b6040516020818303038152906040528051906020012090506109d68183611615565b610a225760405162461bcd60e51b815260206004820152600e60248201527f496e76616c696420436f75706f6e0000000000000000000000000000000000006044820152606401610812565b610a2d8360016122d3565b336000908152600a6020526040902060010154610a4a90866122d3565b10610a975760405162461bcd60e51b815260206004820152601460248201527f45786365656473204d617820416c6c6f747465640000000000000000000000006044820152606401610812565b336000908152600a602052604081206001018054869290610ab99084906122d3565b90915550610aca9050335b8561171b565b50505050565b606060038054610623906121f8565b6008546001600160a01b03163314610b395760405162461bcd60e51b815260206004820181905260248201527f4f776e61626c653a2063616c6c6572206973206e6f7420746865206f776e65726044820152606401610812565b600980547fffffffffffffffffffffffff0000000000000000000000000000000000000000166001600160a01b0392909216919091179055565b610b848166027ca57357c0006122eb565b3414610bd25760405162461bcd60e51b815260206004820152601160248201527f496e636f7272656374205061796d656e740000000000000000000000000000006044820152606401610812565b610bdc3382611735565b600b546040516001600160a01b03909116903480156108fc02916000818181858888f19350505050158015610c15573d6000803e3d6000fd5b5050565b6001600160a01b038216331415610c5c576040517fb06307db00000000000000000000000000000000000000000000000000000000815260040160405180910390fd5b3360008181526007602090815260408083206001600160a01b0387168085529083529281902080547fffffffffffffffffffffffffffffffffffffffffffffffffffffffffffffff001686151590811790915590519081529192917f17307eab39ab6107e8899845ad3d59bd9653f200f220920489ca2b5937696c31910160405180910390a35050565b610cf1848484611144565b6001600160a01b0383163b15610aca57610d0d848484846118e7565b610aca576040517fd1a57ed600000000000000000000000000000000000000000000000000000000815260040160405180910390fd5b6060610d4e8261108c565b610d84576040517fa14c4b5000000000000000000000000000000000000000000000000000000000815260040160405180910390fd5b6000610d9b60408051602081019091526000815290565b9050805160001415610dbc5760405180602001604052806000815250610de7565b80610dc684611a60565b604051602001610dd7929190612328565b6040516020818303038152906040525b9392505050565b610dfe8365b5e620f480006122eb565b3414610e4c5760405162461bcd60e51b815260206004820152601160248201527f496e636f7272656374205061796d656e740000000000000000000000000000006044820152606401610812565b610e578260016122d3565b336000908152600a6020526040902054610e7190856122d3565b10610ebe5760405162461bcd60e51b815260206004820152601460248201527f45786365656473204d617820416c6c6f747465640000000000000000000000006044820152606401610812565b6000808333604051602001610ed59392919061224c565b604051602081830303815290604052805190602001209050610ef78183611615565b610f435760405162461bcd60e51b815260206004820152600e60248201527f496e76616c696420436f75706f6e0000000000000000000000000000000000006044820152606401610812565b336000908152600a602052604081208054869290610f629084906122d3565b90915550610f71905033610ac4565b600b546040516001600160a01b03909116903480156108fc02916000818181858888f1935050505015801561088f573d6000803e3d6000fd5b6008546001600160a01b031633146110045760405162461bcd60e51b815260206004820181905260248201527f4f776e61626c653a2063616c6c6572206973206e6f7420746865206f776e65726044820152606401610812565b6001600160a01b0381166110805760405162461bcd60e51b815260206004820152602660248201527f4f776e61626c653a206e6577206f776e657220697320746865207a65726f206160448201527f64647265737300000000000000000000000000000000000000000000000000006064820152608401610812565b611089816115ab565b50565b600080548210801561060e5750506000908152600460205260409020547c0100000000000000000000000000000000000000000000000000000000900460ff161590565b60008281526006602052604080822080547fffffffffffffffffffffffff0000000000000000000000000000000000000000166001600160a01b0387811691821790925591518593918516917f8c5be1e5ebec7d5bd14f71427d1e84f3dd0314c0f7b2291e5b200ac8c7c3b92591a4505050565b600061114f82611404565b9050836001600160a01b031681600001516001600160a01b0316146111a0576040517fa114810000000000000000000000000000000000000000000000000000000000815260040160405180910390fd5b6000336001600160a01b03861614806111be57506111be85336104e1565b806111d95750336111ce846106a6565b6001600160a01b0316145b905080611212576040517f59c896be00000000000000000000000000000000000000000000000000000000815260040160405180910390fd5b6001600160a01b038416611252576040517fea553b3400000000000000000000000000000000000000000000000000000000815260040160405180910390fd5b61125e600084876110d0565b6001600160a01b03858116600090815260056020908152604080832080547fffffffffffffffffffffffffffffffffffffffffffffffff000000000000000080821667ffffffffffffffff9283167fffffffffffffffffffffffffffffffffffffffffffffffffffffffffffffffff01831617909255898616808652838620805493841693831660019081018416949094179055898652600490945282852080547fffffffff000000000000000000000000000000000000000000000000000000001690941774010000000000000000000000000000000000000000429092169190910217835587018084529220805491939091166113bb5760005482146113bb578054602086015167ffffffffffffffff1674010000000000000000000000000000000000000000027fffffffff000000000000000000000000000000000000000000000000000000009091166001600160a01b038a16171781555b50505082846001600160a01b0316866001600160a01b03167fddf252ad1be2c89b69c2b068fc378daa952ba7f163c4a11628f55a4df523b3ef60405160405180910390a461088f565b60408051606081018252600080825260208201819052918101919091528160005481101561157957600081815260046020908152604091829020825160608101845290546001600160a01b038116825274010000000000000000000000000000000000000000810467ffffffffffffffff16928201929092527c010000000000000000000000000000000000000000000000000000000090910460ff161515918101829052906115775780516001600160a01b0316156114c5579392505050565b507fffffffffffffffffffffffffffffffffffffffffffffffffffffffffffffffff01600081815260046020908152604091829020825160608101845290546001600160a01b03811680835274010000000000000000000000000000000000000000820467ffffffffffffffff16938301939093527c0100000000000000000000000000000000000000000000000000000000900460ff1615159281019290925215611572579392505050565b6114c5565b505b6040517fdf2d9b4200000000000000000000000000000000000000000000000000000000815260040160405180910390fd5b600880546001600160a01b038381167fffffffffffffffffffffffff0000000000000000000000000000000000000000831681179093556040519116919082907f8be0079c531659141344cd1fd0a4f28419497f9722a3daafe3b4186f6b6457e090600090a35050565b60008060018484604001518560000151866020015160405160008152602001604052604051611660949392919093845260ff9290921660208401526040830152606082015260800190565b6020604051602081039080840390855afa158015611682573d6000803e3d6000fd5b50506040517fffffffffffffffffffffffffffffffffffffffffffffffffffffffffffffffe001519150506001600160a01b0381166117035760405162461bcd60e51b815260206004820152600c60248201527f5a65726f204164647265737300000000000000000000000000000000000000006044820152606401610812565b6009546001600160a01b039081169116149392505050565b610c15828260405180602001604052806000815250611b92565b6000546001600160a01b038316611778576040517f2e07630000000000000000000000000000000000000000000000000000000000815260040160405180910390fd5b816117af576040517fb562e8dd00000000000000000000000000000000000000000000000000000000815260040160405180910390fd5b6001600160a01b038316600081815260056020908152604080832080547fffffffffffffffffffffffffffffffff00000000000000000000000000000000811667ffffffffffffffff8083168a018116918217680100000000000000007fffffffffffffffffffffffffffffffffffffffffffffffff000000000000000090941690921783900481168a01811690920217909155858452600490925290912080547fffffffff0000000000000000000000000000000000000000000000000000000016909217740100000000000000000000000000000000000000004290921691909102179055808083015b6040516001830192906001600160a01b038716906000907fddf252ad1be2c89b69c2b068fc378daa952ba7f163c4a11628f55a4df523b3ef908290a480821061189b5750600055505050565b6040517f150b7a020000000000000000000000000000000000000000000000000000000081526000906001600160a01b0385169063150b7a0290611935903390899088908890600401612357565b602060405180830381600087803b15801561194f57600080fd5b505af192505050801561199d575060408051601f3d9081017fffffffffffffffffffffffffffffffffffffffffffffffffffffffffffffffe016820190925261199a91810190612393565b60015b611a11573d8080156119cb576040519150601f19603f3d011682016040523d82523d6000602084013e6119d0565b606091505b508051611a09576040517fd1a57ed600000000000000000000000000000000000000000000000000000000815260040160405180910390fd5b805181602001fd5b7fffffffff00000000000000000000000000000000000000000000000000000000167f150b7a02000000000000000000000000000000000000000000000000000000001490505b949350505050565b606081611aa057505060408051808201909152600181527f3000000000000000000000000000000000000000000000000000000000000000602082015290565b8160005b8115611aca5780611ab4816123b0565b9150611ac39050600a83612418565b9150611aa4565b60008167ffffffffffffffff811115611ae557611ae5611f7e565b6040519080825280601f01601f191660200182016040528015611b0f576020820181803683370190505b5090505b8415611a5857611b2460018361242c565b9150611b31600a86612443565b611b3c9060306122d3565b60f81b818381518110611b5157611b51612457565b60200101907effffffffffffffffffffffffffffffffffffffffffffffffffffffffffffff1916908160001a905350611b8b600a86612418565b9450611b13565b6000546001600160a01b038416611bd5576040517f2e07630000000000000000000000000000000000000000000000000000000000815260040160405180910390fd5b82611c0c576040517fb562e8dd00000000000000000000000000000000000000000000000000000000815260040160405180910390fd5b6001600160a01b038416600081815260056020908152604080832080547fffffffffffffffffffffffffffffffff00000000000000000000000000000000811667ffffffffffffffff8083168b018116918217680100000000000000007fffffffffffffffffffffffffffffffffffffffffffffffff000000000000000090941690921783900481168b01811690920217909155858452600490925290912080547fffffffff000000000000000000000000000000000000000000000000000000001683177401000000000000000000000000000000000000000042909316929092029190911790558190818501903b15611d9d575b60405182906001600160a01b038816906000907fddf252ad1be2c89b69c2b068fc378daa952ba7f163c4a11628f55a4df523b3ef908290a4611d4d60008784806001019550876118e7565b611d83576040517fd1a57ed600000000000000000000000000000000000000000000000000000000815260040160405180910390fd5b808210611d02578260005414611d9857600080fd5b611de2565b5b6040516001830192906001600160a01b038816906000907fddf252ad1be2c89b69c2b068fc378daa952ba7f163c4a11628f55a4df523b3ef908290a4808210611d9e575b506000908155610aca9085838684565b7fffffffff000000000000000000000000000000000000000000000000000000008116811461108957600080fd5b600060208284031215611e3257600080fd5b8135610de781611df2565b60005b83811015611e58578181015183820152602001611e40565b83811115610aca5750506000910152565b60008151808452611e81816020860160208601611e3d565b601f017fffffffffffffffffffffffffffffffffffffffffffffffffffffffffffffffe0169290920160200192915050565b602081526000610de76020830184611e69565b600060208284031215611ed857600080fd5b5035919050565b6001600160a01b038116811461108957600080fd5b60008060408385031215611f0757600080fd5b8235611f1281611edf565b946020939093013593505050565b600060208284031215611f3257600080fd5b8135610de781611edf565b600080600060608486031215611f5257600080fd5b8335611f5d81611edf565b92506020840135611f6d81611edf565b929592945050506040919091013590565b7f4e487b7100000000000000000000000000000000000000000000000000000000600052604160045260246000fd5b604051601f82017fffffffffffffffffffffffffffffffffffffffffffffffffffffffffffffffe016810167ffffffffffffffff81118282101715611ff457611ff4611f7e565b604052919050565b600080600083850360a081121561201257600080fd5b843593506020850135925060607fffffffffffffffffffffffffffffffffffffffffffffffffffffffffffffffc08201121561204d57600080fd5b506040516060810181811067ffffffffffffffff8211171561207157612071611f7e565b6040908152850135815260608501356020820152608085013560ff8116811461209957600080fd5b604082015292959194509192509050565b600080604083850312156120bd57600080fd5b82356120c881611edf565b9150602083013580151581146120dd57600080fd5b809150509250929050565b600080600080608085870312156120fe57600080fd5b843561210981611edf565b935060208581013561211a81611edf565b935060408601359250606086013567ffffffffffffffff8082111561213e57600080fd5b818801915088601f83011261215257600080fd5b81358181111561216457612164611f7e565b612194847fffffffffffffffffffffffffffffffffffffffffffffffffffffffffffffffe0601f84011601611fad565b915080825289848285010111156121aa57600080fd5b808484018584013760008482840101525080935050505092959194509250565b600080604083850312156121dd57600080fd5b82356121e881611edf565b915060208301356120dd81611edf565b600181811c9082168061220c57607f821691505b60208210811415612246577f4e487b7100000000000000000000000000000000000000000000000000000000600052602260045260246000fd5b50919050565b6060810160028510612287577f4e487b7100000000000000000000000000000000000000000000000000000000600052602160045260246000fd5b93815260208101929092526001600160a01b031660409091015290565b7f4e487b7100000000000000000000000000000000000000000000000000000000600052601160045260246000fd5b600082198211156122e6576122e66122a4565b500190565b6000817fffffffffffffffffffffffffffffffffffffffffffffffffffffffffffffffff0483118215151615612323576123236122a4565b500290565b6000835161233a818460208801611e3d565b83519083019061234e818360208801611e3d565b01949350505050565b60006001600160a01b038087168352808616602084015250836040830152608060608301526123896080830184611e69565b9695505050505050565b6000602082840312156123a557600080fd5b8151610de781611df2565b60007fffffffffffffffffffffffffffffffffffffffffffffffffffffffffffffffff8214156123e2576123e26122a4565b5060010190565b7f4e487b7100000000000000000000000000000000000000000000000000000000600052601260045260246000fd5b600082612427576124276123e9565b500490565b60008282101561243e5761243e6122a4565b500390565b600082612452576124526123e9565b500690565b7f4e487b7100000000000000000000000000000000000000000000000000000000600052603260045260246000fdfea26469706673582212202bf642d4f127493c3149bf83aa5f2d5819f5cdfb8ab9c949d636ca96601370cb64736f6c634300080900336080604052604051620015413803806200154183398101604081905262000026916200042e565b8051825114620000985760405162461bcd60e51b815260206004820152603260248201527f5061796d656e7453706c69747465723a2070617965657320616e6420736861726044820152710cae640d8cadccee8d040dad2e6dac2e8c6d60731b60648201526084015b60405180910390fd5b6000825111620000eb5760405162461bcd60e51b815260206004820152601a60248201527f5061796d656e7453706c69747465723a206e6f2070617965657300000000000060448201526064016200008f565b60005b82518110156200015757620001428382815181106200011157620001116200050c565b60200260200101518383815181106200012e576200012e6200050c565b60200260200101516200016060201b60201c565b806200014e8162000538565b915050620000ee565b50505062000571565b6001600160a01b038216620001cd5760405162461bcd60e51b815260206004820152602c60248201527f5061796d656e7453706c69747465723a206163636f756e74206973207468652060448201526b7a65726f206164647265737360a01b60648201526084016200008f565b600081116200021f5760405162461bcd60e51b815260206004820152601d60248201527f5061796d656e7453706c69747465723a2073686172657320617265203000000060448201526064016200008f565b6001600160a01b038216600090815260026020526040902054156200029b5760405162461bcd60e51b815260206004820152602b60248201527f5061796d656e7453706c69747465723a206163636f756e7420616c726561647960448201526a206861732073686172657360a81b60648201526084016200008f565b60048054600181019091557f8a35acfbc15ff81a39ae7d344fd709f28e8600b4aa8c65c6b64bfe7fe36bd19b0180546001600160a01b0319166001600160a01b0384169081179091556000908152600260205260408120829055546200030390829062000556565b600055604080516001600160a01b0384168152602081018390527f40c340f65e17194d14ddddb073d3c9f888e3cb52b5aae0c6c7706b4fbc905fac910160405180910390a15050565b634e487b7160e01b600052604160045260246000fd5b604051601f8201601f191681016001600160401b03811182821017156200038d576200038d6200034c565b604052919050565b60006001600160401b03821115620003b157620003b16200034c565b5060051b60200190565b600082601f830112620003cd57600080fd5b81516020620003e6620003e08362000395565b62000362565b82815260059290921b840181019181810190868411156200040657600080fd5b8286015b848110156200042357805183529183019183016200040a565b509695505050505050565b600080604083850312156200044257600080fd5b82516001600160401b03808211156200045a57600080fd5b818501915085601f8301126200046f57600080fd5b8151602062000482620003e08362000395565b82815260059290921b84018101918181019089841115620004a257600080fd5b948201945b83861015620004d95785516001600160a01b0381168114620004c95760008081fd5b82529482019490820190620004a7565b91880151919650909350505080821115620004f357600080fd5b506200050285828601620003bb565b9150509250929050565b634e487b7160e01b600052603260045260246000fd5b634e487b7160e01b600052601160045260246000fd5b60006000198214156200054f576200054f62000522565b5060010190565b600082198211156200056c576200056c62000522565b500190565b610fc080620005816000396000f3fe60806040526004361061009a5760003560e01c80638b83209b11610069578063ce7c2ac21161004e578063ce7c2ac214610236578063d79779b214610279578063e33b7de3146102bc57600080fd5b80638b83209b146101ae5780639852595c146101f357600080fd5b806319165587146100f55780633a98ef3914610117578063406072a91461013b57806348b750441461018e57600080fd5b366100f0577f6ef95f06320e7a25a04a175ca677b7052bdd97131872c2192525a629f51be770336040805173ffffffffffffffffffffffffffffffffffffffff90921682523460208301520160405180910390a1005b600080fd5b34801561010157600080fd5b50610115610110366004610d3e565b6102d1565b005b34801561012357600080fd5b506000545b6040519081526020015b60405180910390f35b34801561014757600080fd5b50610128610156366004610d5b565b73ffffffffffffffffffffffffffffffffffffffff918216600090815260066020908152604080832093909416825291909152205490565b34801561019a57600080fd5b506101156101a9366004610d5b565b610518565b3480156101ba57600080fd5b506101ce6101c9366004610d94565b610854565b60405173ffffffffffffffffffffffffffffffffffffffff9091168152602001610132565b3480156101ff57600080fd5b5061012861020e366004610d3e565b73ffffffffffffffffffffffffffffffffffffffff1660009081526003602052604090205490565b34801561024257600080fd5b50610128610251366004610d3e565b73ffffffffffffffffffffffffffffffffffffffff1660009081526002602052604090205490565b34801561028557600080fd5b50610128610294366004610d3e565b73ffffffffffffffffffffffffffffffffffffffff1660009081526005602052604090205490565b3480156102c857600080fd5b50600154610128565b73ffffffffffffffffffffffffffffffffffffffff8116600090815260026020526040902054610388576040517f08c379a000000000000000000000000000000000000000000000000000000000815260206004820152602660248201527f5061796d656e7453706c69747465723a206163636f756e7420686173206e6f2060448201527f736861726573000000000000000000000000000000000000000000000000000060648201526084015b60405180910390fd5b600061039360015490565b61039d9047610ddc565b905060006103d783836103d28673ffffffffffffffffffffffffffffffffffffffff1660009081526003602052604090205490565b610891565b905080610466576040517f08c379a000000000000000000000000000000000000000000000000000000000815260206004820152602b60248201527f5061796d656e7453706c69747465723a206163636f756e74206973206e6f742060448201527f647565207061796d656e74000000000000000000000000000000000000000000606482015260840161037f565b73ffffffffffffffffffffffffffffffffffffffff83166000908152600360205260408120805483929061049b908490610ddc565b9250508190555080600160008282546104b49190610ddc565b909155506104c4905083826108e3565b6040805173ffffffffffffffffffffffffffffffffffffffff85168152602081018390527fdf20fd1e76bc69d672e4814fafb2c449bba3a5369d8359adf9e05e6fde87b056910160405180910390a1505050565b73ffffffffffffffffffffffffffffffffffffffff81166000908152600260205260409020546105ca576040517f08c379a000000000000000000000000000000000000000000000000000000000815260206004820152602660248201527f5061796d656e7453706c69747465723a206163636f756e7420686173206e6f2060448201527f7368617265730000000000000000000000000000000000000000000000000000606482015260840161037f565b73ffffffffffffffffffffffffffffffffffffffff82166000908152600560205260408120546040517f70a0823100000000000000000000000000000000000000000000000000000000815230600482015273ffffffffffffffffffffffffffffffffffffffff8516906370a082319060240160206040518083038186803b15801561065557600080fd5b505afa158015610669573d6000803e3d6000fd5b505050506040513d601f19601f8201168201806040525081019061068d9190610df4565b6106979190610ddc565b905060006106dd83836103d2878773ffffffffffffffffffffffffffffffffffffffff918216600090815260066020908152604080832093909416825291909152205490565b90508061076c576040517f08c379a000000000000000000000000000000000000000000000000000000000815260206004820152602b60248201527f5061796d656e7453706c69747465723a206163636f756e74206973206e6f742060448201527f647565207061796d656e74000000000000000000000000000000000000000000606482015260840161037f565b73ffffffffffffffffffffffffffffffffffffffff8085166000908152600660209081526040808320938716835292905290812080548392906107b0908490610ddc565b909155505073ffffffffffffffffffffffffffffffffffffffff8416600090815260056020526040812080548392906107ea908490610ddc565b909155506107fb9050848483610a42565b6040805173ffffffffffffffffffffffffffffffffffffffff8581168252602082018490528616917f3be5b7a71e84ed12875d241991c70855ac5817d847039e17a9d895c1ceb0f18a910160405180910390a250505050565b60006004828154811061086957610869610e0d565b60009182526020909120015473ffffffffffffffffffffffffffffffffffffffff1692915050565b6000805473ffffffffffffffffffffffffffffffffffffffff85168252600260205260408220548391906108c59086610e3c565b6108cf9190610e79565b6108d99190610eb4565b90505b9392505050565b8047101561094d576040517f08c379a000000000000000000000000000000000000000000000000000000000815260206004820152601d60248201527f416464726573733a20696e73756666696369656e742062616c616e6365000000604482015260640161037f565b60008273ffffffffffffffffffffffffffffffffffffffff168260405160006040518083038185875af1925050503d80600081146109a7576040519150601f19603f3d011682016040523d82523d6000602084013e6109ac565b606091505b5050905080610a3d576040517f08c379a000000000000000000000000000000000000000000000000000000000815260206004820152603a60248201527f416464726573733a20756e61626c6520746f2073656e642076616c75652c207260448201527f6563697069656e74206d61792068617665207265766572746564000000000000606482015260840161037f565b505050565b6040805173ffffffffffffffffffffffffffffffffffffffff848116602483015260448083018590528351808403909101815260649092018352602080830180517bffffffffffffffffffffffffffffffffffffffffffffffffffffffff167fa9059cbb0000000000000000000000000000000000000000000000000000000017905283518085019094528084527f5361666545524332303a206c6f772d6c6576656c2063616c6c206661696c656490840152610a3d92869291600091610b0d918516908490610bb7565b805190915015610a3d5780806020019051810190610b2b9190610ecb565b610a3d576040517f08c379a000000000000000000000000000000000000000000000000000000000815260206004820152602a60248201527f5361666545524332303a204552433230206f7065726174696f6e20646964206e60448201527f6f74207375636365656400000000000000000000000000000000000000000000606482015260840161037f565b60606108d984846000858573ffffffffffffffffffffffffffffffffffffffff85163b610c40576040517f08c379a000000000000000000000000000000000000000000000000000000000815260206004820152601d60248201527f416464726573733a2063616c6c20746f206e6f6e2d636f6e7472616374000000604482015260640161037f565b6000808673ffffffffffffffffffffffffffffffffffffffff168587604051610c699190610f1d565b60006040518083038185875af1925050503d8060008114610ca6576040519150601f19603f3d011682016040523d82523d6000602084013e610cab565b606091505b5091509150610cbb828286610cc6565b979650505050505050565b60608315610cd55750816108dc565b825115610ce55782518084602001fd5b816040517f08c379a000000000000000000000000000000000000000000000000000000000815260040161037f9190610f39565b73ffffffffffffffffffffffffffffffffffffffff81168114610d3b57600080fd5b50565b600060208284031215610d5057600080fd5b81356108dc81610d19565b60008060408385031215610d6e57600080fd5b8235610d7981610d19565b91506020830135610d8981610d19565b809150509250929050565b600060208284031215610da657600080fd5b5035919050565b7f4e487b7100000000000000000000000000000000000000000000000000000000600052601160045260246000fd5b60008219821115610def57610def610dad565b500190565b600060208284031215610e0657600080fd5b5051919050565b7f4e487b7100000000000000000000000000000000000000000000000000000000600052603260045260246000fd5b6000817fffffffffffffffffffffffffffffffffffffffffffffffffffffffffffffffff0483118215151615610e7457610e74610dad565b500290565b600082610eaf577f4e487b7100000000000000000000000000000000000000000000000000000000600052601260045260246000fd5b500490565b600082821015610ec657610ec6610dad565b500390565b600060208284031215610edd57600080fd5b815180151581146108dc57600080fd5b60005b83811015610f08578181015183820152602001610ef0565b83811115610f17576000848401525b50505050565b60008251610f2f818460208701610eed565b9190910192915050565b6020815260008251806020840152610f58816040850160208701610eed565b601f017fffffffffffffffffffffffffffffffffffffffffffffffffffffffffffffffe016919091016040019291505056fea26469706673582212205fc946813041f317470fced0fc7e90fafcd0e536ed6e0e434df25c36077ccf2964736f6c63430008090033",
  "linkReferences": {},
  "deployedLinkReferences": {}
}